:100000000C942A000C943F000C943F000C943F0089
:100010000C943F000C943F000C943F000C943F0064
:100020000C943F000C943F000C943F000C943F0054
:100030000C943F000C9452000C945C000C943F0014
:100040000C943F000C943F000C943F000C943F0034
:100050000C943F0011241FBECFE5D8E0DEBFCDBF1A
:1000600010E0A0E6B0E0ECE9F1E002C005900D92EE
:10007000A837B107D9F70E9441000C94CC000C942A
:10008000000020E835E240E050E060E072E18AE7FD
:1000900090E00E94660080E690E00E94970080E079
:1000A00090E008951F920F920FB60F9211240F90B7
:1000B0000FBE0F901F9018951F920F920FB60F92C0
:1000C00011240F900FBE0F901F9018950F931F9340
:1000D00089019A01000F111F221F331F000F111FEA
:1000E000221F331FA9019801220F331F441F551FE0
:1000F000220F331F441F551F0E94AA00BA01A901F5
:1001000041505109610971098AB188618AB980B584
:10011000866880BD49B9BB27A72F962F852F80BD44
:100120001F910F9108955D9BFECF8CB908950F9399
:100130001F93CF938C01C0E003C00E949300CF5F58
:10014000F801EC0FF11D80818111F7CFCF911F9144
:100150000F910895A1E21A2EAA1BBB1BFD010DC031
:10016000AA1FBB1FEE1FFF1FA217B307E407F50767
:1001700020F0A21BB30BE40BF50B661F771F881F43
:10018000991F1A9469F760957095809590959B01D9
:0C019000AC01BD01CF010895F894FFCF31
:10019C00426C7565746F6F746820697320436F6E61
:0801AC006E65637465642100B7
:00000001FF
