:100000000C942A000C9434000C9434000C943400AA
:100010000C9434000C9434000C9434000C94340090
:100020000C9434000C9434000C9434000C94340080
:100030000C9434000C9434000C9434000C94340070
:100040000C9434000C9434000C9434000C94340060
:100050000C94340011241FBECFE5D8E0DEBFCDBF25
:100060000E9436000C949C000C94000020E835E2BD
:1000700040E050E060E072E18AE790E00E944500D5
:100080000E9472000E947600FBCF0F931F9389019C
:100090009A01000F111F221F331F000F111F221F73
:1000A000331FA9019801220F331F441F551F220F30
:1000B000331F441F551F0E947A00BA01A901415005
:1000C0005109610971098AB188618AB980B5866868
:1000D00080BD49B9BB27A72F962F852F80BD1F91C3
:1000E0000F9108955F9BFECF8CB108955D9BFECF6D
:1000F0008CB90895A1E21A2EAA1BBB1BFD010DC0ED
:10010000AA1FBB1FEE1FFF1FA217B307E407F507C7
:1001100020F0A21BB30BE40BF50B661F771F881FA3
:10012000991F1A9469F760957095809590959B0139
:0C013000AC01BD01CF010895F894FFCF91
:00000001FF
