S0190000323034313136562D626C7565746F6F74682E7372656384
S11300000C942A000C943C000C943C000C943C008E
S11300100C943C000C943C000C943C000C943C006C
S11300200C943C000C943C000C943C000C943C005C
S11300300C943C000C94CD000C94DE000C943C0019
S11300400C943C000C943C000C943C000C943C003C
S11300500C943C0011241FBECFE5D8E0DEBFCDBF19
S113006020E0A0E6B0E001C01D92A136B207E1F79E
S11300700E94BC000C94F2000C94000088BB8BB36B
S11300808F7B8BBB8BB380628BBB8FEC97E001972C
S1130090F1F700C000008BB38F7D8BBB08958FEF09
S11300A087BB8AB380668ABB88E30E943E008FE9DF
S11300B09FE00197F1F700C0000082E00E943E003B
S11300C08FE99FE00197F1F700C0000081E00E94F2
S11300D03E008FE99FE00197F1F700C000008CE03B
S11300E00E943E008FE99FE00197F1F700C00000F5
S11300F086E00E943E008FE99FE00197F1F700C07F
S1130100000080E80E943E008FE99FE00197F1F72C
S113011000C0000008959FEF980F903128F46623E3
S113012031F0633038F408C061E081E005C061E07B
S113013081E002C061E081E090E4699F800D1124B8
S1130140815C0E943E000895CF93C82F862F642FB0
S11301500E948B00C8BB8BB380648BBB8BB3806263
S11301608BBB8FEC97E00197F1F700C000008BB3D5
S11301708F7D8BBBCF91089578940E944F000E948D
S1130180E800809160008130E1F786B341E061E0EE
S11301900E94A40010926000F4CF1F920F920FB639
S11301A00F9211248F938CB188BB81E080936000FF
S11301B08F910F900FBE0F901F9018951F920F9262
S11301C00FB60F9211240F900FBE0F901F90189529
S11301D08AB1886F8AB980B5866880BD83E389B99E
S10B01E010BC0895F894FFCF50
S9030000FC
