S0160000323034313136562D6C63646C69622E73726563F3
S11300000C942A000C943F000C943F000C943F0085
S11300100C943F000C943F000C943F000C943F0060
S11300200C943F000C943F000C943F000C943F0050
S11300300C943F000C943F000C943F000C943F0040
S11300400C943F000C943F000C943F000C943F0030
S11300500C943F0011241FBECFE5D8E0DEBFCDBF16
S113006010E0A0E6B0E0E2EAF2E002C005900D92F2
S1130070AC37B107D9F70E942D010C944F010C94B1
S1130080000088BB8BB38F7B8BBB8BB380628BBB35
S11300908FEC97E00197F1F700C000008BB38F7DE0
S11300A08BBB08958FEF87BB8AB380668ABB88E3D6
S11300B00E9441008FE99FE00197F1F700C0000022
S11300C082E00E9441008FE99FE00197F1F700C0B0
S11300D0000081E00E9441008FE99FE00197F1F761
S11300E000C000008CE00E9441008FE99FE001976E
S11300F0F1F700C0000086E00E9441008FE99FE014
S11301000197F1F700C0000080E80E9441008FE9E8
S11301109FE00197F1F700C0000008959FEF980F4A
S1130120903128F4662331F0633038F408C061E07C
S113013081E005C061E081E002C061E081E090E41B
S1130140699F800D1124815C0E944100089588BB41
S11301508BB380648BBB8BB380628BBB8FEC97E0DB
S11301600197F1F700C000008BB38F7D8BBB08951E
S1130170CF93C82F862F642F0E948E00C8BB8BB3E9
S113018080648BBB8BB380628BBB8FEC97E0019751
S1130190F1F700C000008BB38F7D8BBBCF91089526
S11301A00F931F93CF938C01862F642F0E948E0090
S11301B0C0E003C00E94A700CF5FF801EC0FF11D5F
S11301C080818111F7CFCF911F910F910895CF9224
S11301D0DF92EF92FF92CF93DF93362FC22F8111DC
S11301E01AC0642F832F0E948E00C12CD12C76015B
S11301F008C080E30E94A7008FEFC81AD80AE80A53
S1130200F80A8C2F90E0A0E0B0E0C816D906EA0600
S1130210FB067CF31AC09DEC899F912D1124D92FE4
S1130220D695D695D695DD0F2D2F220F220FD20FFE
S11302308D1BD82F2C2F892F8695869586950E9405
S1130240E70080E38D0F0E94A70080E0DF91CF914B
S1130250FF90EF90DF90CF9008950E94520041E00C
S113026061E080E690E00E94D00041E068E087E62B
S113027090E00E94D00042E061E081E790E00E94BB
S1130280D00020E042E06AE084E60E94E70042E019
S11302906DE085E20E94B80080E090E00895F89453
S10502A0FFCF8A
S11302A24D4F44453A4700434F4E54524F4C3A4106
S10F02B200424154544552593A200000C7
S9030000FC
